:020000040800F2
:1000000098070020A1010008EB28000869250008D6
:10001000E92800087B120008F12A0008000000000F
:10002000000000000000000000000000EF280008B1
:100030006113000800000000ED2800081F290008D7
:10004000BB010008BB010008BB010008BB010008A0
:10005000BB010008BB010008BB010008BB01000890
:10006000BB010008BB010008BB010008BB01000880
:10007000BB010008BB010008BB010008BB01000870
:10008000BB010008BB010008BB010008BB01000860
:10009000BB010008BB010008BB010008BB01000850
:1000A000BB010008BB010008BB010008BB01000840
:1000B000BB010008BB010008BB010008BB01000830
:1000C000BB010008BB010008BB010008BB01000820
:1000D000BB010008BB010008BB010008BB01000810
:1000E000BB010008BB010008BB01000800F002F8DA
:1000F00000F047F80AA090E8000C82448344AAF17B
:100100000107DA4501D100F03CF8AFF2090EBAE878
:100110000F0013F0010F18BFFB1A43F0010318473B
:10012000B8320000D8320000103A24BF78C878C135
:10013000FAD8520724BF30C830C144BF04680C60ED
:10014000704700000023002400250026103A28BF35
:1001500078C1FBD8520728BF30C148BF0B60704739
:10016000662903F0D780002070471FB500F02CFBF4
:1001700004000020002102F04FFEE0601FBD10B51A
:1001800010BD00F021FC1146FFF7EFFF02F086FDE5
:1001900000F03FFC03B4FFF7F2FF03BC00F080FC6B
:1001A0000948804709480047FEE7FEE7FEE7FEE70B
:1001B000FEE7FEE7FEE7FEE7FEE7FEE70448054947
:1001C000054A064B704700008B290008ED00000827
:1001D0009801002098070020980300209803002031
:1001E0000FB41CB5074B06AA7B44694600900598DE
:1001F00000F0D1FA0020694600F0E0FA1CBC5DF87E
:1002000014FB0000D10500002DE9F0474FF0000A73
:1002100089460446C0F820A02046E16888470028A7
:1002200076D0252806D0D4E901219047206A401CC9
:100230002062F1E7E168204600258847C4F81CA049
:1002400006460027C4F818A02A2E09D0304602F02E
:1002500075FC38B304EB8708303EC8F8186019E025
:1002600059F8041B204604EB87029161E168884736
:10027000012F064618D1E069002820DA25F0200574
:100280001DE0D8F8180000EB800006EB4000303885
:10029000C8F818002046E1688847064602F04EFC80
:1002A0000028EED1012F0AD02E2E08D12046E16879
:1002B00088477F1C0646022F45F02005C4DBA06955
:1002C000002803DA404245F00105A061E80701D0AB
:1002D00025F01005B6B1A6F14100192802D8203644
:1002E00045F400654A463146204625604D46FFF7F5
:1002F00037FF58B1012806D0ED1D25F0070000F1A9
:10030000080989E704E005F1040985E730468AE732
:10031000206ABDE8F0874FF0000200B5134694460E
:100320009646203922BFA0E80C50A0E80C50B1F14D
:100330002001BFF4F7AF090728BFA0E80C5048BF61
:100340000CC05DF804EB890028BF40F8042B08BFFF
:10035000704748BF20F8022B11F0804F18BF00F8FB
:10036000012B704770477047704770472DE9FF4F6A
:100370000C461E464FF0FF378BB0D2E90001DDF886
:1003800060800A908A46C1F30A5505B93D460021AE
:1003900008464FF00000BAF1000F00F4400005DA03
:1003A00000EB80004FF4400101EA50004FEA905901
:1003B000B9F1010F00DDB9460A9850EA4A000ED0A3
:1003C00044F61050A5F2FF3545432F14B8F1000F45
:1003D0001ED07542291E1EDDC9F100021CE0B8F1D5
:1003E000010F4FF0000001D0302103E0F24305E09F
:1003F0002154401CB042FBDB304600220021215436
:100400000B99C1F80880C1E900200FB0BDE8F08F5A
:10041000BD1B6D1CDEE74A4600DA694206A800F003
:100420005DFA06AB07CB03AB07C350460A9900F051
:100430003EFB8DE80700A0F500501F3800900398A0
:10044000002D09DD42F21F014A46084403A903902A
:10045000684600F09DFD08E0A0F500504A461F38B0
:1004600003A90390684600F0A7FD8DE8070000048B
:10047000000C03D04FF0FF30410800E01046B8F107
:10048000000F03D00022009215461FE0751E06D40F
:1004900000F09EF902F1300262556D1EF8D5B346A8
:1004A0000122084302D000227F1C04E0207830287B
:1004B00001D100227F1E002A099787D01DE0112D4F
:1004C00007DA00F085F9303262556D1C50EA0102FE
:1004D000F5D108430FD10021681E05E0235C625C62
:1004E0006354491C2254401E8142F7DBAB46A81BD3
:1004F000401E099001E0009848B1002004F80B006C
:100500000B98099AC0F80880C0E9002B7DE71126F6
:100510004FF000085AE72DE9F04F88460446D21DF7
:1005200022F0070191B0D1E90001CDE90A0102F002
:10053000E0FA02460B98C00F01D02D2007E020689A
:10054000810701D52B2002E0202101EAC000032A07
:10055000099001D0072A05DB03464146204600F0FA
:100560007DF90FE12078800601D5E06900E00620E2
:10057000B8F1650F814606D0B8F1660F18D0B8F112
:10058000670F72D132E00020B9F1110F009001DB4A
:10059000112301E009F101030AAA01A90CA8FFF740
:1005A000E5FEDDE90C70002609F10105834648E00F
:1005B00001204B4600904FF000470AAA01A90CA861
:1005C000FFF7D4FEDDE90DB00C995D46002618B9A1
:1005D00009F1010001EB0005B9EB050003D4C0F1FE
:1005E000FF3609F10105A5EB09002BE0B9F1010F78
:1005F00001DA4FF001090020B9F1110F00904846CF
:1006000001DD112300E003460AAA01A90CA8FFF7A7
:10061000ADFEDDE90C704D460026834620780007CC
:100620000AD4AB4500DA5D4601A8012D04DD41196D
:1006300011F8011C302907D04F4502DA17F1040FD9
:1006400004DA0120824610E06D1EEEE7002F02DC86
:10065000ED1B3E4403E0781CA84200DD0546A7EBF5
:10066000060000F1010A4FF000472078000703D48C
:10067000AA4501DB4FF0FF3A0021B7F1004F0DF121
:1006800043088DF8431023D002202B23002F01DADA
:100690007F422D234FF00A0C011EA0F1010000DC67
:1006A0004FB197FBFCF10CFB11720F4602F13002C7
:1006B00008F8012DF0E7A8F1010003702188090571
:1006C00001D5452100E06521A0F1010800F8011CD9
:1006D00009980FA9A1EB080707F1070700B101204E
:1006E00000EB050101EBEA70A1693844A1EB0000C1
:1006F000A0F10100A0612078C00602D42046AFF32B
:100700000080099830B1D4E901219047206A00F1B6
:10071000010020622078C00620D52046AFF300807B
:100720001CE0002E04DBB34502DD01A8805D00E083
:100730003020D4E901219047206A761C401CBAF190
:10074000010A20620AD100F03FF8C0680168405CED
:10075000D4E901219047206A401C2062281EA5F19F
:100760000105DEDC07E0D4E9012118F8010B904710
:10077000206A401C2062381EA7F10107F3DC2046E6
:10078000AFF30080022011B040E6000001694A1C6E
:1007900002610878704700B58FB0CDE901310021C2
:1007A000059105497944CDE9031011466846FFF7E4
:1007B0002BFD0FB000BD0000E5FFFFFF0A6802F847
:1007C000010B0A6070470000004870475801002084
:1007D00030B5B0F10A024FEA900E71F100034EEA13
:1007E000817EB0EB0E0061EB91014FEA101E4EEAE4
:1007F000017E10EB0E0041EB11114FEA102E4EEA74
:10080000016E10EB0E0041EB11214FEA104E4EEA43
:10081000014E10EB0E0041EB1141401841F1000177
:100820004FEAD00040EA41704FEAD10110EB800559
:100830004FEA810444EA907444EB01046D1944EBDF
:100840000404521BA3414FF0000348BF0A3200D5F5
:1008500030BD401C41F1000130BD00002DE9F041E8
:100860001F46044603260168072A01F4006004DBE2
:1008700008B116A505E016A503E008B115A500E02E
:1008800015A521F010002060A069C01EA0610FB165
:10089000401EA0612046AFF300804FB1D4E9012192
:1008A00038469047206A401C2062C01C206206E047
:1008B000206AFAE7D4E9012115F8010B9047761E6A
:1008C000F8D22046AFF30080BDE8F0814E414E00E3
:1008D0006E616E00494E4600696E66002DE9F04774
:1008E000814616468AB035487844D0E900238068AE
:1008F0000092CDE90130314878440C38D0E9022328
:10090000006903924FF03702CDE9043041F69B3085
:10091000014491FBF2F0A0F1800502FB10141B3C96
:1009200002D56442012000E00020DFF890A080465C
:100930000027FA44AAF1C60A0DE0E00709D03246C2
:10094000684607EB47010AEB810100F035FB8DE8B3
:10095000070064107F1C002CEFD1184F7F44B43F78
:1009600017E0E80713D007EB04100DF1180A90E820
:100970000E00AAE80E00C068F04201D19819089054
:10098000324606A903A800F017FB03AB07C36D109E
:10099000641C002DE5D132466946B8F1000F03A86A
:1009A00002D000F0F5FA01E000F006FBC9E9000111
:1009B000C9F808200AB0BDE8F0870000D42A00007A
:1009C00000487047380100207546FFF7F9FFAE4632
:1009D00005006946534620F00700854618B020B54B
:1009E000FFF7ECFBBDE820404FF000064FF000079A
:1009F0004FF000084FF0000B21F00701AC46ACE8C7
:100A0000C009ACE8C009ACE8C009ACE8C0098D4633
:100A100070470446AFF300802046FFF7BBFB0000A1
:100A20004FF0013C50F8042B51F8043B9A4221D17D
:100A3000A2EB0C03934313EACC1317D150F8042B09
:100A400051F8043B9A4215D1A2EB0C03934313EAED
:100A5000CC130BD150F8042B51F8043B9A4209D126
:100A6000A2EB0C03934313EACC13DBD04FF000004E
:100A7000704700BFD01A01BAB1FA81F101F0180134
:100A800022FA01F0CB40C1F12001DBB2C0B2C01AA2
:100A90002CFA01F3D11A914311EAC311E6D1704740
:100AA00001491820ABBEFEE72600020070475FEA4E
:100AB000400C08BF91F0000F4FEA8C234FEAC1228F
:100AC00043EA51514FEA1C5018BF00F5F0404FEA7D
:100AD000300018BF41F000415FEA6C5C00F02980F3
:100AE000BCF1FF3F08BF40F080407047130C06BFC9
:100AF00012044FF0100C4FF0000C130E04BF120242
:100B00000CF1080C130F04BF12010CF1040C930F2D
:100B100004BF92000CF1020CD30F04BF52000CF181
:100B2000010C11464FF00002A0F11F00A0EB0C00D9
:100B3000704711F0004F08BF704731F000413FF49B
:100B4000D5AF0B0C06BF09044FF0100C4FF0000C92
:100B50000B0E04BF09020CF1080C0B0F04BF0901B6
:100B60000CF1040C8B0F04BF89000CF1020CCB0FAD
:100B700004BF49000CF1010CCCF12003A0EB0C00E8
:100B800022FA03F302FA0CF241EA030100F1010038
:100B9000704720F07F4C80EA030023F07F47ACEBE6
:100BA000070303F57C5300F0004003F1FF032DE938
:100BB00080494FEA154B09B44FEA144325EA0B4E1E
:100BC00024EA03480FF2042606EB132749083E786F
:100BD0005FEA320203FB0667C7F5000707FB06F66C
:100BE0004FEA54374FEAD64606F1020607FB066C79
:100BF000CCF1005C4FEA1C472CEA074C07FB06F4DB
:100C00000CFB06F504EB15464FEA961634BF0020A0
:100C10004FF000404FEAD13706FB07FC4FEA1C4C6F
:100C20000CFB0BF7D21B03FB0CF761EB07010CFB72
:100C30000EF7B0EB074072EB17420CFB08F734BF1E
:100C4000A2EB0742B2EB074261EB17414FEA0C44BB
:100C50004FEA910706FB07FC4FEA1C4C0CFB0BF715
:100C6000B0EBC74072EB573203FB0CF734BFA2EB7B
:100C7000C742B2EBC74261EB57310CFB0EF7B0EB4A
:100C8000C70072EB57720CFB08F734BFA2EBC70228
:100C9000B2EBC70261EB5771039F4FEA816141EAF2
:100CA000921104EBCC044FEAD1374FEA826206FB83
:100CB00007FC42EA90124FEA80604FEA1C4C0CFBA2
:100CC0000BF7D21B03FB0CF761EB07010CFB0EF7D4
:100CD000B0EB074072EB17420CFB08F734BFA2EBF6
:100CE0000742B2EB074261EB17414FEA8C554FEADE
:100CF000910704EB9C2406FB07FC4FEA1C4C0CFB01
:100D00000BF7B0EBC74072EB573203FB0CF734BF65
:100D1000A2EBC742B2EBC74261EB57310CFB0EF7B7
:100D2000B0EBC70072EB57720CFB08F734BFA2EBB5
:100D3000C702B2EBC70261EB577115EB4C254FEAC6
:100D4000816141EA92114FEA82624FEAD13742EA69
:100D5000901206FB07FC44F100044FEA80604FEA62
:100D60001C4C0CFB0BF7D21B03FB0CF761EB0701D0
:100D70000CFB0EF7B0EB074072EB17420CFB08F7C9
:100D800034BFA2EB0742B2EB074261EB174115EB10
:100D90001C154FEA813141EA92414FEA823242EA20
:100DA00090424FEA80304FEA0C7644F1000448EA62
:100DB00003434EEA0B484FF0000EB2EB080C71EB08
:100DC000030724BF624639464EEB0E0E4FF0000B70
:100DD0000018524149414BEB0B0BB2EB080C71EB85
:100DE00003077BF1000B24BF624639464EEB0E0E23
:100DF0004FF0000B0018524149414BEB0B0BB2EB8B
:100E0000080C71EB03077BF1000B24BF62463946E7
:100E10004EEB0E0E51EA020718BF46F0010616EB24
:100E20000E7655F1000254F1000103D5BDE88901A9
:100E3000BDE80088BDE88901BDE80048B619524107
:100E400041EB0101A3F10103704780807F7E7D7C2F
:100E50007B7A7978777676757473727171706F6E4C
:100E60006E6D6C6C6B6A6A696868676666656464F7
:100E7000636362616160605F5F5E5E5D5D5C5C5B81
:100E80005B5A5A59595858575756565555555454F0
:100E9000535352525251515050504F4F4F4E4E4D4E
:100EA0004D4D4C4C4C4B4B4B4A4A4A49494948489A
:100EB00048474747474646464545454444444443DA
:100EC00043434342424242414141002B26D47700F2
:100ED00021D01CB54FEA370703B44FF010004FF094
:100EE00010014FF000000FBCBDE810400BF1010BEA
:100EF000BBF1010F08BF5FEA170722BF12F1010221
:100F000011F101014FF0004143F1000300F00040F6
:100F100043EA00007047F9D35708DAE746EA064685
:100F200013F1400F4FEA16461FDD13F1200FDFBF0C
:100F300016430A46002120335B42C8D0C3F1200784
:100F400046EA064602FA07F74FEA164646EA070659
:100F5000C3F1200722FA03F201FA07F721FA03F19D
:100F60004FF0000342EA0702B1E746EA020646EA0A
:100F700006464FEA164646EA0106BCBF46EA064662
:100F8000360C4FF000034FF000024FF000019EE7D7
:100F90002DE9C048934630B491E8380007C831EADB
:100FA000400C48BF34EA430C03D5FFF7F2FDFFF7CE
:100FB0008CFFF0BCBDE800882DE9C048934630B4F2
:100FC00091E8380007C810F0804F08BF13F0804F39
:100FD00003D100F005F8FFF778FFF0BCBDE800880A
:100FE00020F07F4780EA030023F07F4C07EB0C03DF
:100FF000A3F57C5300F00040A3F1FE0392F0000F34
:1010000000F0B38095F0000F00F077802DE90149E2
:101010004FEA11404FEA144621EA004800FB06FC63
:1010200024EA064708FB06F607FB08F800FB07F76B
:1010300018EB06484CEB164C4FEA124B18EB0748DE
:101040004FEA15464CEB174022EA0B4E0BFB06FC11
:1010500025EA06470EFB06F607FB0EFE0BFB07F71D
:101060001EEB064E4CEB164C4FF000061EEB074EE7
:101070004CEB174B18EB0B0840F1000018EB0E0B74
:1010800058EB000840F100008F1A4FF000013CBF00
:10109000C943661B14BFB5EB040C00213CBFC94318
:1010A000F61B4FEA17444EEA8E0E27EA04454FEA34
:1010B0001C4704FB07622CEA074C05FB07F70CFBF7
:1010C00005F604FB0CFC16EB074642EB174216EB49
:1010D0000C4642EB1C421BEB060658EB0202414158
:1010E00046EA9E0601D5BDE80189B619524141EB99
:1010F0000101A3F10103BDE801894FEA14454FEA5C
:10110000114724EA054621EA074C05FB07F406FBD4
:1011100007F70CFB06F105FB0CFC11EB074144EB58
:1011200017444FEA124711EB0C4144EB1C4422EAEE
:10113000074C05FB07F206FB07F70CFB06F605FB61
:101140000CFC16EB074642EB174216EB0C4642EB43
:101150001C456A1854F1000148BF7047B619524146
:1011600041EB0101A3F10103704795F0000F37D067
:101170004FEA11424FEA144721EA024624EA074C9B
:1011800002FB07F106FB07F70CFB06F402FB0CFC65
:1011900014EB074441EB17414FEA154714EB0C449D
:1011A00041EB1C4125EA074C02FB07F506FB07F75C
:1011B0000CFB06F602FB0CFC16EB074645EB17454D
:1011C00016EB0C4645EB1C42121951F1000148BFC9
:1011D0007047B619524141EB0101A3F10103704779
:1011E0004FEA14454FEA114724EA054621EA074C25
:1011F00005FB07F106FB07F70CFB06F24FF00006B4
:1012000005FB0CFC12EB074241EB174112EB0C42C1
:1012100051EB1C4148BF7047921841EB0101A3F10B
:101220000103704770B5044600688168C943C90767
:1012300017D1816821F00101816000F017FB05469C
:101240000AE000BF00F012FB401B022804D920680E
:101250008068C043C00706D020688068C043C007CC
:10126000F0D0002070BDA06A40F01000A062E06ADB
:1012700040F00100E062012070BDFEE770B5104D46
:101280000221284601F034FB0024282001F05EFCF6
:101290000221284600F0E0FA50B9502001F056FC37
:1012A0000221284600F0D8FA08B1012400E0FF240A
:1012B0000221284600F0D0FA0028F9D1204670BD5E
:1012C000000801402DE9F0410024144F01260221BD
:1012D000384600F0C1FA0028F9D0282001F036FC89
:1012E0000221384600F0B8FA90B1C4F1070106FABD
:1012F00001F02843C5B20221384600F0ADFA0028BB
:10130000F9D1641CE4B2082CE1D32846BDE8F08191
:10131000C4F1070006FA00F08543ECE7000801403D
:1013200010B50E4C0221204601F0EDFA00220221F8
:10133000204600F096FA4FF4966001F007FC012277
:101340000221204600F08DFA142001F0FFFB204618
:10135000BDE81040022101F0CBBA000000080140B6
:101360007047000010B586B0044614216846FEF7A9
:10137000D2FF0021012001F03AFC204601F054FF89
:1013800002460B4605A16846FEF72AFF684601F0B3
:101390007BFC252001F058FC06B010BD52483A25D0
:1013A0002E3266200000000010B586B004461421DD
:1013B0006846FEF7B0FF0021084601F018FC204601
:1013C00001F032FF02460B4605A16846FEF708FF12
:1013D000684601F059FC432001F036FC06B010BD10
:1013E00054454D503A252E3266200000F8B50024B1
:1013F000009490F824202546012A12D0012280F87A
:1014000024204A681F23072A0DD20668776B521ED4
:1014100002EB820293409F430B6893401F43776324
:1014200019E00220F8BD06680D2A0AD2376BD21FD8
:1014300002EB820293409F430B6893401F43376344
:1014400009E0F76A0D3A02EB820293409F430B6872
:1014500093401F43F7620A68072306680A2A0AD3E3
:10146000F7680A3A02EB420293409F438B6893402D
:101470001F43F76008E0376902EB420293409F4345
:101480008B6893401F4337610A68102A01D0112AE4
:1014900020D1124B02689A4217D193681B0219D4CB
:1014A000936843F4000393600968102912D10C4932
:1014B0000C4A0968B1FBF2F101EB8101490000E03F
:1014C000491E00910029FBD104E0816A41F020010E
:1014D0008162012480F824502046F8BD0024014098
:1014E0002000002040420F002DE9F0414FF000079E
:1014F00004003D467ED0A06A002628B9E66284F842
:101500002460204600F07EF82046FFF78BFEA16A9B
:1015100001F01001014304D0A06A40F01000A06265
:1015200068E0A16A21F4885141F00201A162626879
:10153000E169237B0A4347EA43010A43A1684FF468
:101540008077B94208D0012906D0002194F814C050
:10155000BCF1010F02D00AE03946F7E7F3B1A36A04
:1015600043F02003A362E36A43F00103E3622368CC
:10157000D3F804C02CF4694C4CEA010CC3F804C045
:1015800023689968DFF870C001EA0C011143996083
:10159000A168B9420BD0012909D00CE0DFF85CC08A
:1015A000A3690CEB43330B4343F40061DFE7218A6B
:1015B0000D05A5F580152168CB6A23F470032B4334
:1015C000CB62216889680E4B1940914208D1E662CE
:1015D000A16A21F0020141F00101A162BDE8F081A0
:1015E000A06A20F0020040F01000A062E06A40F023
:1015F0000100E0620120F1E7FDF7E1FF00E0FFFFFD
:10160000FE0E1FFF00B585B00021009101910291EF
:10161000039100680E49884218D10E48816941F44F
:1016200000718161816901F400710491816941F067
:10163000040181618069694600F00400049008207B
:10164000009003200190044800F01AF805B000BD96
:1016500000240140001002400008014070B504461B
:1016600000F004F90546601C02D0044800780444E8
:1016700000F0FCF8401BA042FAD370BD140000201B
:101680002DE9F84FDFF8B0910024A9F1040B2346AF
:101690000F2709F1040AABF1040EC6E00125A540AD
:1016A0002A40AA4276D1DFF894C14E68A6EB0C0816
:1016B00066452BD00DDC032E34D005DC36B3012E6D
:1016C00019D0022E2FD11BE0112E16D0122E2AD1A6
:1016D00019E0B8F5881F19D006DCB8F5803F15D0A1
:1016E000B8F5801F1FD111E0B8F5001F0ED0B8F576
:1016F000041F18D10AE0CB6815E0CB681B1D12E06F
:10170000CB6808330FE0CB680C330CE08B682BB14F
:10171000012B4FF0080303D0456104E0042302E0ED
:10172000056100E00023FF2A01D8064601E000F130
:1017300004064FEA840501D9A5F12005D6F80080FA
:1017400007FA05FC28EA0C0803FA05F548EA05083B
:10175000C6F800804D68ED0066D5394DAE6946F09B
:101760000106AE61AD6924F0030605F001050095A0
:10177000344D06EB050CDCF80850A607360F07FAC7
:1017800006F825EA0805DFF8C080404503D14FF090
:10179000000817E048E0DFF8B480404502D14FF080
:1017A00001080FE0DFF8A880404502D14FF00208A1
:1017B00008E0DFF8A080404502D14FF0030801E0C7
:1017C0004FF0040808FA06F848EA0508CCF8088043
:1017D0004D68D9F80060ED02002D4D4601DA164340
:1017E00000E096432E604D68DAF80060AD02002DEF
:1017F000554601DA164300E096432E604D68DBF84B
:101800000060AD03002D5D4601DA164300E096430B
:101810002E604D68DEF80060ED03002D754601DA9C
:10182000164300E096432E60641C0A6832FA04F501
:101830007FF434AFBDE8F88F0804014000001110B8
:10184000001002400000014000080140000C01406F
:1018500000100140001401408068084000D00120C1
:1018600070470AB1016170470904FBE701488068CD
:10187000704700001400002070B5040025D094F8D3
:101880003D00002520B984F83C50204600F04CF97A
:10189000242084F83D002068016821F001010160E6
:1018A0002068016841F4004101602068016821F46A
:1018B0000041016000F0FEFA4A4A6168914201D895
:1018C000494900E04949884201D2012070BD484998
:1018D0002368B0FBF1F15E6826F03F060E435E60C0
:1018E0006368934206D94FF4967359434FF47A7361
:1018F000B1FBF3F12368491C1E6A26F03F06314311
:101900001962616891420AD84900401EB0FBF1F0AB
:10191000401CC0F30B0004281ED204201CE0A36866
:10192000F3B301EBC10202EB0116421EB2FBF6F269
:10193000521C42F48042120549D093B301EBC1021C
:1019400002EB0111401EB0FBF1F0401CC0F30B0094
:1019500040F4804040F400402168CA694CF6FF73AF
:101960009A431043C861D4E9071001432068026814
:1019700022F0C00211430160D4E903010143206851
:10198000826848F2FF339A4311438160D4E905012C
:1019900008432168CA6822F0FF021043C86001E0D2
:1019A0000EE016E02068016841F001010160256445
:1019B000202084F83D00256384F83E50002070BD4F
:1019C00001EB4106421EB2FBF6F2521CB3E70120C6
:1019D000C2E701EB4101401EB0FBF1F0401CC0F337
:1019E0000B00B7E7A086010080841E0000093D00BF
:1019F00040420F002DE9F84F1F4690468A460446A4
:101A0000DDF82890FFF732FF054694F83D002028C6
:101A10007ED11923012242492046009500F036FE6E
:101A200000287AD194F83C00012876D0012084F86F
:101A30003C0020680168C90703D1016841F0010139
:101A400001602068016821F400610160212084F8B0
:101A50003D00102084F83E0000262664C4F824804F
:101A60006785608D20852F48E0622B464A465146A7
:101A7000204600F091FD90B920684169806900908E
:101A80003AE02A464946204600F0A6FE50B1206CB6
:101A9000042804D12068016841F40071016001202C
:101AA000BDE8F88F606A216800780861606A00F11B
:101AB00001006062618DA1F101016185218DA1F1BB
:101AC000010189B22185226853696FEA03035B072C
:101AD0000BD451B100781061606A401C6062608D67
:101AE000401E6085208D401E20852A46494620469E
:101AF00000F0A0FD0028CAD1208D0028C1D154F8E3
:101B00001F0B016841F4007101602020A07700E004
:101B100003E0E67766770020C2E70220C0E7000016
:101B2000020010000000FFFF10B586B000210091F8
:101B300001910291039100680F4988421AD10F4C1C
:101B4000A06940F00800A061A069694600F00800A3
:101B50000490C020009012200190032003900848B8
:101B6000FFF78EFDE06940F40010E061E06900F4E9
:101B70000010049006B010BD005400400010024058
:101B8000000C01400248816802781144816070476E
:101B900014000020074810B5016841F010010160F1
:101BA000032000F067F80F2000F006F800F024F89A
:101BB000002010BD0020024070B50D4D04464FF4CA
:101BC0007A712878B1FBF0F00A490968B1FBF0F0AE
:101BD00000F04AFB48B9102C07D200222146501EC3
:101BE00000F028F800206C6070BD012070BD00007E
:101BF00014000020200000200C4808B5816941F045
:101C000001018161816901F001010091C16941F027
:101C10008051C161C06900F0805000900448416863
:101C200021F0E06141F00071416008BD0010024008
:101C300000000140F0B40E4B1B680C46C3F30223B6
:101C4000C3F10705042D00D90425191D072901D268
:101C5000002300E0DB1E012606FA05F1491E2140A3
:101C600099409E40761E16403143F0BC00F056BFAE
:101C70000CED00E0064900F0070208684FF6FF038C
:101C8000184040EA0220034A1043086070470000F1
:101C90000CED00E00000FA052DE9F8430546007858
:101CA000364CC00755D0E0690026C00008D4E06972
:101CB00040F08050E061E069012600F08050009023
:101CC0002F480168C90512D40168804641F480712B
:101CD0000160FFF7CBFD074605E000BFFFF7C6FD3B
:101CE000C01B642823D8D8F80000C005F6D5206AA8
:101CF00010F4407021D0A98801F4407181421CD0B9
:101D0000206A2049012220F440700A6000220A6003
:101D10002062C00711D0FFF7A9FD074641F28838BD
:101D200008E000BFFFF7A2FDC11B414502D9032017
:101D3000BDE8F883206A8007F4D5206A696820F43A
:101D4000407008432062012E03D1E06920F08050EA
:101D5000E0612878800705D56068A96820F44040D4
:101D6000084360602878C00605D56068E96820F4FB
:101D70008000084360600020DAE7000000100240A5
:101D800000700040400442422DE9F0470F46050034
:101D900061D0434E306800F00700B84209D2306885
:101DA00020F0070038433060306800F00700B84288
:101DB00051D128683B4C810712D5400703D5606894
:101DC00040F4E06060602878000703D5606840F464
:101DD000605060606068A96820F0F00008436060AF
:101DE0002878C00728D06868012810D02168022808
:101DF00010D0890700292EDA616821F00301014320
:101E00006160FFF733FD804641F288390DE02168BB
:101E10008903EFE78901EDE7FFF728FDA0EB080153
:101E2000494502D90320BDE8F0876068696800F081
:101E30000C00B0EB810FEFD1306800F00700B84222
:101E40000BD9306820F0070038433060306800F06C
:101E50000700B84201D00120E5E72878400705D502
:101E60006068E96820F4E060084360602878000753
:101E700006D56068296920F4605040EAC1006060BE
:101E800000F038F86168084AC1F30311515CC8409A
:101E90000649086006480068FFF78EFE0020C2E78A
:101EA00000200240001002402A33000820000020D9
:101EB000180000200448054900684968044AC1F335
:101EC0000221515CC84070472000002000100240F1
:101ED0003A3300080448054900684968044AC1F3D8
:101EE000C221515CC8407047200000200010024011
:101EF0003A3300080E4A51680E4801F00C03042BD7
:101F000011D0082B0FD10C48C1F38343C903C05C27
:101F10000AD55168084AC1F34041921E515C054AF6
:101F20005043B0FBF1F0704704494843704700004C
:101F30000010024000127A001A33000800093D0028
:101F40002DE9F84F040070D02078C24DC00749D069
:101F50006868C0F38100012807D06868C0F3810079
:101F6000022809D16868C00306D52868800339D5DE
:101F700060680028E7D035E06068B0F5803F0BD09E
:101F800010B1B0F5A02F11D0286820F4803028605F
:101F9000286820F4802002E0286840F4803028601F
:101FA000606890B1FFF762FC06460AE0286840F4DA
:101FB00080202860F0E700BFFFF758FC801B6428F2
:101FC00074D828688003F7D50CE0FFF74FFC06466D
:101FD00005E000BFFFF74AFC801B6428F0D82868A2
:101FE0008003F7D420789C4E80074FF001094FF012
:101FF000000839D5686810F00C0F07D06868C0F386
:102000008100022809D16868C00306D428688007C7
:1020100014D52069012808D110E02069B0B1C6F8B4
:102020000090FFF723FC074605E00EE1FFF71EFCDA
:10203000C01B0228C4D828688007F7D528686169C2
:1020400020F0F80040EAC10028600DE0C6F80080EA
:10205000FFF70CFC074604E0FFF708FCC01B022852
:10206000AED828688007F7D4207800072ED57B48A3
:10207000A169E1B1C0F80090FFF7F8FB074604E062
:10208000FFF7F4FBC01B022810D8686A8007F7D559
:1020900073484FF4FA510068B0FBF1F0009000BFB4
:1020A0000098411E00910028F9D10FE082E0C0F8AD
:1020B0000080FFF7DBFB074605E000BFFFF7D6FB1C
:1020C000C01B022876D8686A8007F7D420784007BA
:1020D00061D5E8690027C00008D4E86940F0805065
:1020E000E861E869012700F0805000905D480168D0
:1020F000C90513D40168834641F480710160FFF77C
:10210000B5FB824606E000BFFFF7B0FBA0EB0A007C
:1021100064284FD8DBF80000C005F5D5E068012839
:102120000AD008B1052813D0286A20F001002862DF
:10213000286A20F0040002E0286A40F001002862CA
:10214000E06841F2883B98B1FFF790FB82460BE0D4
:10215000286A40F004002862EEE700BFFFF786FB24
:10216000A0EB0A0159455CD8286A8007F6D50CE037
:10217000FFF77CFB824605E0FFF778FBA0EB0A0146
:1021800059454ED8286A8007F6D4012F03D1E86953
:1021900020F08050E861E06990B36968C1F3810183
:1021A000022945D00228C6F8608004D0FFF75EFB04
:1021B000044639E035E0FFF759FB074605E000BF6C
:1021C000FFF754FBC01B02282BD828688001F7D4E6
:1021D000206AB0F5803F05D16868A16820F400301E
:1021E00008436860D4E908010843696821F4741160
:1021F00008436860C6F86090FFF738FB044606E0C5
:1022000025E000BFFFF732FB001B022809D8286831
:102210008001F7D51BE000BFFFF728FB001B022859
:1022200002D90320BDE8F88F28688001F4D40EE0BD
:102230000128F7D06868226A00F48031914204D105
:10224000616A00F47010884201D00120EAE70020A2
:10225000E8E70000001002400000424280044242D1
:10226000200000200070004010B5401EB0F1807FBB
:1022700001D3012010BD4FF0E02460610F216017F1
:1022800000F04CFC0020A06107202061002010BD60
:1022900070B590F83C20012A25D0012480F83C40FC
:1022A000022280F83D2003685A689D6822F070067B
:1022B0000A6832435A600D4B02689A4208D0B2F164
:1022C000804F05D00A4B9A4202D00A4B9A4204D161
:1022D000496825F08003194391603C304470002127
:1022E0000170084670BD022070BD0000002C014046
:1022F000000400400008004010B5040003D094F82A
:102300003D0010B107E0012010BD002084F83C0022
:10231000204600F015F8022084F83D00211D2068B9
:1023200000F034FB01203D3460726070A070E070FA
:1023300020716071A071E07120722070002010BDCA
:1023400008B500680649884208D10648816941F409
:1023500000618161806900F40060009008BD0000A8
:10236000002C01400010024090F83D10012901D0DE
:1023700001207047022180F83D1000680B49884217
:1023800008D0B0F1804F05D00949884202D00949F0
:10239000884204D1816801F00701062903D0016851
:1023A00041F001010160002070470000002C014055
:1023B000000400400008004070B5044690F83C005E
:1023C0000025012817D0012684F83C60022084F8FB
:1023D0003D002068826822F0770222F47F4282600A
:1023E0000868502837D00DDC20284ED005DC88B393
:1023F000102811D149E0022070BD302845D0402876
:102400000AD13AE060282ED070280CD0B0F5805F59
:1024100003D0B0F5005F11D001253C346670002078
:102420002070284670BD4A68083120680AC900F04B
:10243000E3FA2068816841F0770109E04A680831D1
:1024400020680AC900F0D8FA2068816841F4804108
:102450008160E2E719E0CA684968206800F0DEFAA6
:102460005021206806E0CA684968206800F0E7FA51
:102470006021206800F0CAFACFE7CA68496820687E
:1024800000F0CCFA40212068F4E7226801461046AB
:10249000F0E770B5040004D094F84100002510B1B5
:1024A00006E0012070BD84F84050204600F024F87A
:1024B000242084F841002068C16821F40051C160E3
:1024C000204600F0CFFA2068016921F490410161B3
:1024D0002068416921F02A0141612068C16841F406
:1024E0000051C1606564202084F8410084F84200F6
:1024F0006563002070BD000030B585B000240094F5
:1025000001940294039400681449884224D1144829
:10251000816941F480418161816901F480410491C4
:10252000816941F00401816180690E4D00F0040071
:1025300004904FF40070009002200190032003905B
:1025400069462846FFF79CF82815CDE9000469463E
:1025500028460294FFF794F805B030BD00380140DA
:102560000010024000080140FEE701684A69D243BA
:1025700052050FD46FF480624A61002140F8301F89
:10258000202242738173026942F0040202610173E6
:102590000120704700207047F8B50446C06A1E4607
:1025A0000D461746082807D0012805D010F5803FB2
:1025B00002D0206B122804D12068016841F4807198
:1025C0000160134600224FF001112046009600F0F2
:1025D0005DF840B120680068C00502D54FF4007076
:1025E00020640320F8BD2069B0F5804F0ED006208E
:1025F000216800EAD51040F0F000086133463A4601
:102600000B49204600F08AF878B902E005F0FE0098
:1026100000E0E8B221680861054933463A46891F5F
:10262000204600F07BF80028DCD00120F8BD000037
:102630000800010070B516460D4604461EE020460F
:10264000FFF793FF08B1012070BD681C16D0FFF79B
:102650000DF9801BA84200D885B920684069C043A5
:1026600040070BD5002044F8300F20216173A07380
:10267000216941F0200121612073E4E7206840696D
:10268000C0434007DBD4002070BD00002DE9F047B7
:10269000984617460D460446C1F30746DDF82090DC
:1026A0002AE000BF18F1010026D0FFF7DFF8A0EB09
:1026B0000901414502D8B8F1000F1DD12068012E53
:1026C00016D0806925EA00000004000C12D000201A
:1026D000B84211D1002044F8300F20216173A0735B
:1026E000216941F02001216120730120BDE8F087BC
:1026F0004069E7E70120EBE72068012E0AD08069F6
:1027000025EA00000004000C06D00020B842C9D021
:102710000020EBE74069F3E70120F7E72DE9F047F8
:10272000984616460D4604464FF000094FF0200A21
:10273000C1F3074723E020684069C043400515D432
:102740002068016841F40071016021686FF48060C5
:102750004861C4F8309084F83DA084F83E90216C24
:1027600041F00401216484F83C9021E0701C06D003
:10277000FFF77CF8A0EB0800B04203D816B1012F98
:102780001FD021E02068012F15D0806925EA0000C4
:102790000004000C18D000BF44F8309F84F80DA04E
:1027A00084F80E90216941F02001216184F80C9099
:1027B0000120BDE8F087406925EA00000004000C14
:1027C000EAD12068406901E02068806925EA0000BC
:1027D0000004000CAFD1ECE770B516460D46044678
:1027E0001EE02046FFF7C1FE08B1012070BD681C45
:1027F00016D0FFF73BF8801BA84200D885B92068A7
:102800004069C04300060BD5002044F8300F20215A
:102810006173A073216941F0200121612073E4E715
:1028200020684069C0430006DBD4002070BD000072
:102830003EB5002411480094019402940E4984602E
:10284000016004730475012505614FF46021446043
:10285000C161FEF749FE08B172B6FEE70320CDE97B
:102860000005694602940548FEF7C0FD002801D026
:1028700072B6FEE73EBD00000024014024000020A7
:1028800010B586B000241748009401940294039474
:1028900004941349059401603121C0E901144FF6F5
:1028A000FE71C0E9031444618461FFF725FD08B19E
:1028B00072B6FEE74FF48050009069460948FFF772
:1028C0007BFD08B172B6FEE7049404A9054805949F
:1028D000FFF7DEFC002801D072B6FEE706B010BD9F
:1028E000002C0140A8000020FEE7FEE7704770477B
:1028F0001FB50022CDE900120121CDE9021269467F
:10290000FEF7BEFE1FBD1FB5002200910121CDE9DB
:102910000112022103916946FEF7B2FE1FBDFFF7C7
:1029200031B930B593B028216846FDF7F4FC142185
:102930000AA8FDF7F0FC002401200F940225049062
:1029400000951020119405901094129407946846F5
:10295000FFF7F6FA08B172B6FEE70F20CDE90A04D8
:102960000C940D9400210AA80E94FFF70DFA08B1FB
:1029700072B6FEE70FA80F951194FFF78DF90028A6
:1029800001D072B6FEE713B030BD7047F0B50268F3
:10299000164B174C174D4FF08047984205D0B84260
:1029A00003D0A04201D0A84203D122F070064A68A9
:1029B0003243984205D0B84203D0A04201D0A84289
:1029C00003D122F44074CA6822434C6922F0800289
:1029D000224302608A68C2620A688262984201D118
:1029E0000969016301214161F0BD0000002C014033
:1029F000000400400008004010B5846842EA032249
:102A000024F47F440A432243826010BD826822F08E
:102A100070020A4342F007018160704710B5036AF3
:102A2000046A24F001040462846924F0F00444EA96
:102A3000021423F00A020A438461026210BD10B539
:102A4000036A046A24F010040462846923F0A0037A
:102A500024F4704444EA023243EA011182610162C3
:102A600010BD000010B5044600680169E26821F459
:102A70004051114301612169A0680843616908431D
:102A80002168CA6841F20C639A430243CA60206815
:102A90004169A26921F440711143416113492068E1
:102AA000884202D1FFF716FA01E0FFF703FA00EBC4
:102AB000C00101EB0010616864228900B0FBF1F1F4
:102AC000B1FBF2F06FF01803434301EB83033221B3
:102AD00001EB0311B1FBF2F101F0F00202EB001087
:102AE00001F00F0108442168886010BD00380140E2
:102AF000FEE7490050EAC12018BF04204A0D18BF64
:102B000040F0010040F2FF72B2EB515F08BF40F0AD
:102B10000200012808BF0520704700000907090EC0
:102B2000002801DB034A02E0034A00F00F00815451
:102B30007047000000E400E014ED00E030380A289F
:102B400001D2012070470020704700000449002294
:102B50000B685A6209684A6A8242FCD370470000D7
:102B6000A800002010B5012000F04EF8BDE810408C
:102B70000A20FEF773BD10B53220FEF76FFD30203E
:102B800000F042F80520FEF769FD302000F03CF827
:102B90000120FEF763FD302000F036F80A20FEF732
:102BA0005DFD202000F030F80A20FEF757FD2820B8
:102BB00000F02AF80120FEF751FD082000F024F86B
:102BC0000120FEF74BFD012000F01EF80120FEF76A
:102BD00045FD0120FEF742FD062000F015F801201A
:102BE000FEF73CFDBDE810400C2000F00DB810B120
:102BF000012805D102E041F0800101E041F0C0016F
:102C0000C8B200F001B800001CB500F0F00141F0BE
:102C10000C028DF8042041F0080100018DF8051028
:102C200040F00C018DF8061040F008008DF8070008
:102C300064200090042301AA4E210248FEF7DAFE28
:102C40001CBD0000540000201CB500F0F00141F054
:102C50000D028DF8042041F0090100018DF80510E6
:102C600040F00D018DF8061040F009008DF80700C6
:102C700064200090042301AA4E210248FEF7BAFE08
:102C80001CBD00005400002010B5044602E0641C86
:102C9000FFF7DAFF20780028F9D110BD08B5FEF75C
:102CA00079FFFFF73EFE4E48816941F020018161C6
:102CB000816901F020010091816941F00401816185
:102CC000816901F004010091816941F0080181618D
:102CD000806900F008000090FFF7AAFD42484149D2
:102CE000002401604149C0E901144FF48041C0E96A
:102CF000034144618461C4610462FEF7BDFD08B113
:102D000072B6FEE7FFF7BCFD374839499C300160D9
:102D10004FF4E131C0E901140C21C460C0E9044161
:102D20008461C461FFF7B5FB08B172B6FEE72E48B7
:102D30005430FFF719FBFFF71EFF00210846FFF78D
:102D400056FF2CA0FFF7A0FF00210120FFF74FFF47
:102D50002CA0FFF799FF40F6B830FEF77FFCFFF795
:102D600001FF2B4C2B4E4FF47A77E068FEF71CFBEB
:102D70002069FEF7F7FAFEF7D3FAFEF77FFA207024
:102D8000FEF7A0FA6070FEF79DFAA070FEF79AFABF
:102D9000E070FEF797FA2071FEF794FAE080207950
:102DA000E17840EA01206081A178627841EA022559
:102DB000258100F0D1F90022334600F075F800F0CB
:102DC00041F8E060284600F0C7F90022334600F0E1
:102DD0006BF800F037F820613846FEF73FFCC4E797
:102DE000001002400054004054000020A086010062
:102DF0000038014048454C4C4F204D522E5048550C
:102E000020445400544841592050485500000000C7
:102E1000000000200000244010B500290AD00878E6
:102E2000002807D005487844FDF7FAFD002801D0B6
:102E3000002010BD0248784410BD0000D2050000FB
:102E4000CA05000021F00042A2F16052B2F5801FD5
:102E500001F0004328BFD2F17F6C0BD95FEA001C60
:102E600043EAC20242EB507018BF704728BF20F0FF
:102E700001007047B2F5801FBCBF184670474FEA8B
:102E8000410C1CF5001F02D2084600F03EBA70B596
:102E900000F075F900000089FFF7F6BF4FF0004021
:102EA000A0F58000704700002DE9C04130B4DFF884
:102EB000A0C23CEA111418BF3CEA131400F0EC80E5
:102EC00081EA03051CEA111444EAD57418BF1CEA10
:102ED000131500F0C780A4EB05044FF0004545EA48
:102EE000C12145EAC32341EA505143EA525304F158
:102EF0007F74994204F500344FEAC0204FEAC222A1
:102F000008BF904200F09C804FEA13650FF2401614
:102F1000765D4FEA134506FB05F7C7F1807706FBA0
:102F200007F74FEAD737A7FB03687642C8F5803822
:102F3000A7FB06CE38BFA8F1010807FB08E64FF053
:102F4000000EA6FB028CE6FB03CEDCF1000CCEF1FA
:102F5000004E38BFAEF1010EA6FB0C584FF0000733
:102F60004FF00005E6FB0E87A1FB08C6A0FB07CECD
:102F700016EB0E0645F10005E1FB076515F1E04E85
:102F80007EBFA4F580345FEA46066D4116F18007E6
:102F900045F100054FEA17274FEA066647EA05673D
:102FA000A6F1DE46B6F1805F4FEA15251FD93846F7
:102FB00024F0010C05EBC471BCF1FE6F01EB0C11A8
:102FC00002D8F0BCBDE8008124425CBF01F5801E40
:102FD0009EEAC47F02D4F0BCBDE80081244238D40C
:102FE000F0BCA1F1C041BDE8004100F016B94FEAC4
:102FF000D22242EA43524FEAD323A7FB02864FEA8A
:10300000D02040EA415007FB03661EEA0E0F4FEA4C
:10301000D12105FB026658BFA6EB0056B6EB005661
:103020004FEA520E4EEAC37E18EB0E0E56EB530ECD
:10303000BDD518EB02085E417F1C55F10005B6E7CF
:103040004FF480154FF000074FF000064FF00008D6
:10305000ADE7F0BC4FF0000001F1C04101F00041CC
:10306000BDE8008111EA0C1F0CEA131500D00CE03A
:1030700013EA0C1F00F025804FF00000F0BC81EA3D
:10308000030101F00041BDE80081F0BCBDE8004152
:1030900081EA030100F0C1B8F0BCBDE8004170B5A1
:1030A00000F06DF8097EFC3E00F007B881EA0301EC
:1030B0004FF0000001F00041704781EA030100F089
:1030C000ACB8F0BCBDE800414FF0000021497047AA
:1030D000FFFDFBF9F7F5F4F2F0EEEDEBE9E8E6E4DD
:1030E000E3E1E0DEDDDBDAD8D7D5D4D3D1D0CFCD64
:1030F000CCCBCAC8C7C6C5C4C2C1C0BFBEBDBCBB9D
:10310000BAB9B8B7B6B5B4B3B2B1B0AFAEADACAB97
:10311000AAA9A8A8A7A6A5A4A3A3A2A1A09F9F9E71
:103120009D9C9C9B9A999998979796959594939323
:10313000929191908F8F8E8E8D8C8C8B8B8A8989BA
:10314000888887878685858484838382828181803D
:103150000000FF070000F87FB0FA80F310FA03F1D7
:103160000AD0C3F11D0303F580634FEA41504FEAD3
:10317000035202EBD12170474FF0000070470EF16F
:10318000020E2EF0030E5EF8046B364205D4012ABF
:1031900043EB030515F5001F12D8012841EB010C84
:1031A0001CF5001F0CD80ED14FEAD17C15F5001F7D
:1031B0000CEB4C0C0CF1020C08BF4CEBD37C04E084
:1031C0004FF0080C01E04FEAD37C0CEB4C0526FADB
:1031D00005F606F00706B6F1040C06D20EEB860CD7
:1031E000BDE870404CF0010C6047DFE80CF0090BC3
:1031F00002024FF000414FF00000A1F5002170BD28
:1032000019461046012851EB010418BFD4F50014EB
:1032100084BF002001F0004170BD0808A0F5001136
:103220004FEA31017047000043004FEAD30C4FEAE8
:103230003C0C43401FBF40070CF1605113F0FE4FA0
:1032400070471CF0006F03D100200CF00041704764
:103250000CF0004343EA507010B540EACC0000F097
:103260000EF800BF000000924FEA0001FFF7D5BF43
:103270004FF000414FF00000A1F5002170470EF122
:10328000020E2EF0030E5EF8044B244204D44FEAE3
:103290004102B2F17F4F11D84FEA4003B3F17F4FA3
:1032A0000CD80ED14FEAD07CB2F17F4F0CEB4C0C16
:1032B0000CF1020C08BF4CEBD17C04E04FF0080C81
:1032C00001E04FEAD17C0CEB4C0324FA03F404F048
:1032D0000704B4F1040C06D20EEB840CBDE81040D8
:1032E0004CF0010C6047DFE80CF0070802024FF0D9
:1032F0000040A0F5800010BD0846420018BFD2F182
:10330000807288BF00F0004010BDFF2141EAD0501C
:10331000C0057047FDF7FFB8010202030405060768
:1033200008090A0B0C0D0E0F101000000000000021
:103330000000010203040607080900000000010262
:103340000304000002400000000000A00000000094
:1033500005400000000000C8000000000C40000014
:103360000000409C00000000194000000020BCBE8E
:103370000000000034400000BFC91B8E00000004A4
:10338000B5400000504BCFD06607E2CF01000000EF
:103390006C4100003E8251AADFEEA734010000001C
:1033A000D9420000DCB5A0E23A301F97FFFFFFFFD3
:1033B000B4450000FD25A0C8E9A3C14FFFFFFFFFF2
:1033C000FF3F00000000008000000000FF3F000001
:1033D00000000080000000001434000800000020FD
:1033E00024000000280100083834000824000020D0
:1033F00074070000440100081C00000043000000A6
:10340000F8FFFFFF0C0000000E0000000F0000009E
:103410002E0000000000000000000000000000007E
:10342000000000000000000001000000100000008B
:08343000000000000024F4007C
:04000005080000ED02
:00000001FF
